:0600000002010002011ED6
:030013000201A641
:100100007581F412029C783075A895758DFD758BFC
:10011000FD758920759850D28E12032080FEB84E4E
:100120000302015F50399002C01202B17401120340
:10013000049002C71202B179041201D274C01203F2
:10014000049002D41202B179021201D27401120396
:10015000049002E11202B17401120304C2983274D5
:100160000112030474731203127474120312746F75
:100170001203127472120312746112031274671262
:1001800003127465120312742012031274661203B0
:10019000127475120312746C120312746C1203122F
:1001A00074011203043274011203049002F2120269
:1001B000B174011203049002C71202B17904120152
:1001C000E8C29874C01203049002F81202B112023D
:1001D0000732C29889F03098FDC298E599F6081266
:1001E0000312D5F0F1C29822C29889F0884E784F58
:1001F0003098FDC298E599F608120312D5F0F1A8DF
:100200004E754E00C29822884E784F79307A057428
:100210000075F0047400755500784FE667080925ED
:1002200055F555D5F0F5E555B40005120240800BA3
:100230007400292402F9DAD9120264A84EC2983255
:1002400074011203047466120312746F12031274A1
:1002500075120312746E1203127464120312740185
:10026000120304227401120304746E120312746FD9
:1002700012031274741203127420120312746612A1
:100280000312746F1203127475120312746E120348
:1002900012746412031274011203042274381203DC
:1002A00004740E1203047401120304748012030414
:1002B000227400936073120312120320A380F222AF
:1002C000656E726F6C6C00656E74657220726F6C17
:1002D0006C203A00656E746572206E616D65203A1F
:1002E00000656E726F6C6C65642073756363657313
:1002F0007300636865636B00636865636B696E6751
:100300002E2E2E00C297C296F5A0D295120320C2BF
:100310009522D297C296F5A0D295120320C29522BB
:0A0320007AFF7B78DAFEDBFC222274
:00000001FF
